:400000000080002011000000A9080000A908000080B500AF024A034B1B68136000F078FCBC760040FA46004001000000002000400100000000200140010000000048004097
:400040000100000000480140010000000100000008000223000008760800032300001076080004230000287608000523000030760500062300002070050007230000307065
:4000800005000823000060700500FE230000707020000A220000405110000B220000C0511000FE220000F05180070D220000000080010E220000000880000F220000000A74
:4000C000800110220000000C000211220000000E800112220000001480051322000000160001142200000040800015220000004580001622000000478000172200000049F1
:40010000800018220000004C800019220000004D2000FE220000005007001B23000000520C00FE230000004F80001D230000800A80001E230000804D80001F230000804CA8
:40014000800020230000804780002123000000468000222300008046800023230000804580002423000000448000252300008044800026230000801B80002723000080157B
:400180008000282300008009800029230000800780002A230000000B80002B230000800B80002C230000800D80002D230000804980002E230000004880002F2300008048BF
:4001C000800030230000004380003123000080438000322300000042800033230000804280003423000000418000FE230000804110B5054C237833B9044B13B10448AFF38B
:4002000000800123237010BDC881FF1F0000000020270000084B10B51BB108490848AFF300800848036803B910BD074B002BFBD0BDE81040184700BF00000000CC81FF1F5B
:4002400020270000C880FF1F0000000080B5ADF50E7D00AF07F1140318464FF400731A46002101F030FE0023C7F830320023C7F82C320023A7F82A320023C7F82432002300
:40028000C7F82032002387F81F320023C7F818320023C7F814323B1D1A460023136053609360C2F80B3062B600F000FD00F016FD00F092FF0021002000F0A0FF3D4800F02F
:4002C000D5FF0421012000F099FF6D2000F0ECFF562000F0E9FF0721012000F08FFF364800F0C4FF002000F009FD00F02DFDC7F83002002387F837320CE097F8372207F1B6
:400300001403D7F8301243F8221097F83732013387F8373297F93732002BEEDAD7F83032DB01C7F82C32D7F83032C7F8203201F0DDFB01F089FC01F0B9FC0023A7F83432AF
:4003400032E0B7F834321D4A32F81330184601F053FDB7F834223B1D1949184601F0BCFD0D21002000F04AFF3B1D184600F07EFFB7F83432114A32F813301A463B1D114983
:40038000184601F0A9FD0C21012000F037FF3B1D184600F06BFF40F6B83001F0F7FAB7F834320133A7F83432B7F834323B2BC8D9C3E700BF2427000034270000CC80FF1FE1
:4003C0003C2700004027000080B584B000AFF860B9607A607A68B968F86801F069FD00BF1037BD4680BD00BF80B483B000AF0346FB71FEE780B483B000AF434B00221A6021
:40040000424B10221A70424B01221A70414B00221A70414B4FF4D0721A80404B01221A703F4B03221A703F4B3F4A92B21A803F4B47F608021A803E4B00221A803D4B4FF479
:4004400080421A803C4B09221A703C4B0C221A703B4B1A221A703B4B1C221A70BFF35F8F394B01221A70BFF35F8F00BF2A4B1B889BB2002BFAD100237B600DE07B68DA00D8
:40048000324B13441946324A7B6852F823309BB20B807B6801337B607B68332BEED9BFF35F8F294B01221A70BFF35F8F00BF294B1B78DBB203F00103002BF8D100BF264B6C
:4004C0001B78DBB203F00103002BF8D100BF234B1B78DBB203F00103002BF8D100BF204B1B78DBB203F00103002BF8D100BF1D4B1B78DBB203F00103002BF8D100BF0C3750
:40050000BD4680BC704700BFE881FF1F0076004010700040197000400078004002780040037800400478004050000000067800400476004006760040297000403970004011
:400540006970004079700040147000400C78004050270000187000402870004038700040687000407870004080B582B000AF3C4B00221A803B4B50221A7004223A493B486B
:40058000FFF722FF3A4B02221A704FF0402308221A70384B03221A70374B384A1278D2B21A70374B10221A80364B41F251221A800023FB7019237B6014E0FB785B00DAB2CB
:4005C000314B1B78DBB203F00103DBB21343DBB203F00303FB704FF4F07001F02DFC7B68013B7B607B68002B02D0FB78032BE4D17B68002B02D10320FFF7F6FE234B4FF408
:4006000080721A80214B07221A70214B00221A70204B48221A701D4B00221A701E4B02221A701E4B04221A701D4A1D4B1B78DBB243F00103DBB213701A4A1A4B1B78DBB235
:4006400043F00103DBB21370174A174B1B78DBB263F07F03DBB2137000BF0837BD4680BD8040004082400040B40C0048004100400043004000420040A14600400801004924
:40068000224200402042004025420040044000400640004008400040014000400B400040A2430040A1430040A043004080B483B000AF154B1B78FB71144AFB7903F00703FF
:4006C000DBB21370124AFB791B09DBB21370114B80221A70104B4FF401521A800F4B10221A700F4B02221A700E4B40F201121A800D4B01221A700D4B44221A7000BF0C372E
:40070000BD4680BC704700BFCF0100496E5800406F5800403C5100406C510040985A0040005B0040465B00405B5B00407658004080B483B000AF0346FB71FB79012B0ED811
:40074000FB79094A52F82330FA79074951F822201178FA790548825C0A43D2B21A7000BF0C37BD4680BC7047442700004C27000080B483B000AF0346FB71FB79012B10D81C
:40078000FB790A4A52F82330FA79084951F822201178FA790648825CD243D2B20A40D2B21A7000BF0C37BD4680BC7047442700004C27000080B500AF72B6FFF71BFE294B07
:4007C0000A221A70284A284B1B78DBB243F00203DBB21370254A254B1B78DBB243F00203DBB21370224A224B1B78DBB243F04003DBB213701F4A1F4B1B78DBB243F01003F7
:40080000DBB2137008221C491C48FFF7DDFD08221B491C48FFF7D8FD08221B491B48FFF7D3FD08221A491B48FFF7CEFD1A4A1A4B1B78DBB243F00803DBB21370174B6122A4
:400840001A70FFF791FE154BC1221A70144B01221A70FFF72BFF0E2205491248FFF7B4FD00BF80BD835800400350014013500140A0430040C2430040940C004802510040BF
:400880009C0C004812510040A40C004822510040AC0C004862510040224300400048004004000840B043004080B500AF01F0D4FA03461B680C2B00D1FEE7FEE780B584B0B1
:4008C00000AF7860104B1A687B6813441A460F4BD31AB3F5805F09DC0B4B1B68FB600A4B1A687B681344084A136007E001F0B4FA02460C2313604FF0FF33FB60FB68184640
:400900001037BD4680BD00BF4881FF1F1082FF1F80B586B000AF224B7B61224B3B61204B7B6135E03B691B68FB603B695B68BB603B699B683B6000237B600CE0FB681A68FD
:40094000BB681A60BB680433BB60FB680433FB607B6804337B607A683B689A42EED13B69DB683B6000237B6008E0BB6800221A60BB680433BB607B6804337B607A683B6845
:400980009A42F2D13B6910333B617B69013B7B617B69002BC6D101F065FAFFF757FCFEE7010000007C28000080B582B000AF184B184A1A60184A184B1B6843F40073136096
:4009C00000237B600FE07B68032B04D8134A7B6852F8233000E0124B12497A6841F822307B6801337B607B682F2BECD90E4B1B78DAB20E4B1A700E4B0A4A1A60FFF7DAFEF7
:400A00000C4B00221A6000BF0837BD4680BD00BF0CED00E00004FA0514ED00E000000000A90800000080FF1FBC760040C480FF1F08ED00E0C080FF1F80B582B002AF324B1E
:400A400001221A70314B00221A70102000F084FE102000F067FF07211D2000F0F5FF2C4B04221A702B4B00221A702B4B00221A702A4A2A4B1B78DBB243F01803DBB213705E
:400A8000274B00221A70274B00221A70264B00221A70264B0A221A70254B00221A70254B00221A70244B5B221A70244B5E221A70234B00221A70234B14221A700123009390
:400AC00014234FF4004248F6F051022000F044FA1D4A0D4B1B78DBB2013B1C499B000B449B7813701A4A084B1B78DBB2013B174931F823301380044B1B78DBB2184600F02C
:400B000077F900BFBD4680BD4C81FF1FEC81FF1F96580040975800409E580040075B004093580040885B0040895B004080580040815800408358004088580040895800409C
:400B40008D580040014E00400E4E0040F481FF1F0C4E004080B582B000AF01F075F90346FB71444B1B78BB71434A434B1B78DBB243F00103DBB213703F4A3F4B1B78DBB2CB
:400B800043F01003DBB213703C4A3C4B1B78DBB243F00103DBB21370384A384B1B78DBB243F01003DBB21370354A354B1B78DBB243F00203DBB21370324A324B1B78DBB270
:400BC00043F00203DBB213702F4A2F4B1B78DBB243F00303DBB21370032000F0F9FE284A274B1B78DBB223F00203DBB21370254A244B1B78DBB223F00203DBB21370234A88
:400C0000224B1B78DBB243F00603DBB21370204B7A221A701F4A1F4B1B78DBB243F00103DBB213701C4A1C4B1B78DBB243F00103DBB21370194A194B1B78DBB243F00103BE
:400C4000DBB21370164A164B1B78DBB243F00103DBB21370134B4FF000521A60124B4FF000521A60FB79184601F0F2F800BF0837BD4680BD4C81FF1FAA430040BA4300402B
:400C8000F8460040F9460040915800407758004082580040A1430040B1430040A2430040B243004080E200E000E100E080B500AF084B1B78002B09D1074B1B78DBB2002BC4
:400CC00001D1FFF7B9FE034B01221A70FFF742FF00BF80BDEE81FF1FEF81FF1F80B400AF054A054B1B78DBB243F00103DBB2137000BFBD4680BC7047004E004080B485B097
:400D000000AF0346FB710D4B1B78DBB2002B03D00B4B1B78FB7305E00A4B1B78DBB203F00103FB73FB7B012B02D0FB79002BEAD0FB7B18461437BD4680BC7047ED81FF1F55
:400D4000EC81FF1F014E004080B483B000AF224B1B78DBB203F00303FB70FB78012B0BD81E4B1B889BB27B607B681B041C4A128892B213437B6020E0FB78022B12D1174B40
:400D80001B889BB27B607B681B04154A1278D2B213437B60134B1B78DBB21B027A6813437B600AE00E4B1B889BB27B600B4B1B889BB21B047A6813437B600B4B1B78DBB21E
:400DC000002B02D0094B00221A707B6818460C37BD4680BC704700BF144E0040124E0040104E0040114E0040ED81FF1FEC81FF1F80B582B000AF0346FB71384B00221A702D
:400E0000FB79012B65D1364B78221A70354B00221A70354B09221A70344B7F221A70344B00221A70334B7F221A70334B00221A70324B00221A70324B00221A70314B01223D
:400E40001A70314B50221A70304B0A221A70304B2C221A702F4B00221A702F4B44221A702E4B48221A702E4B01221A702D4B02221A702D4B12221A702C4B28221A702C4BAB
:400E8000EB221A70522000F01FF92A4B58221A70294B00221A70294B05221A70284B02221A70284B00221A70274B00221A70002000F080FB254B264A1A600121032000F0EB
:400EC0008DFB01210F2000F06FFC22491D2000F093FD00BF0837BD4680BD00BFED81FF1F004E0040024E0040034E0040044E0040054E0040064E0040084E0040094E004078
:400F00000A4E0040144E0040845800408558004086580040875800408A5800408B5800408C5800408E5800408F580040905800409158004094580040955800409A5800406F
:400F40009B5800409C5800409D5800400882FF1F333303004511000090B587B000AF0446084611461A462346FB710346BB800B467B801346BB7197F82830002B00F08B80BD
:400F800097F82830012B00F28680FB79013B092B4AD801A252F823F0C10F00002910000029100000C10F00002910000029100000DB0F0000F50F0000291000000F10000056
:400FC000BB790F2B04D9374B1B78DBB2FB752EE0354B1B78DBB2FB7529E0BB790F2B04D9324B1B78DBB2FB7521E0314B1B78DBB2FB751CE0BB790F2B04D92E4B1B78DBB228
:40100000FB7514E02C4B1B78DBB2FB750FE0BB790F2B04D9294B1B78DBB2FB7507E0284B1B78DBB2FB7502E00023FB7500BFBA8897F917305B0113443B617B883A6902FBDE
:4010400003F3FB60FB68DB0BBB82BB790D2B12D8BA8ABB79C3F10E0342FA03F3BB8297F82830013BBA790132D1B2164A9B0013440A469A7007E097F82830013B114A9B00DF
:4010800013440F229A7097F82830013B0D49BA8A21F8232002E0002000F06CFC00BF1C37BD4690BD180100491C010049190100491D0100491A0100491E0100491B01004906
:4010C0001F010049F481FF1F80B584B000AF0346FB7100F0B9FE0346FB73174A164B1B78DBB243F00303DBB21370144A134B1B78DBB243F00303DBB21370114AFB79137027
:40110000032000F065FC0C4A0B4B1B78DBB223F00303DBB21370094A084B1B78DBB223F00303DBB21370FB7B184600F091FE00BF1037BD4680BD00BFF8460040F946004002
:401140009258004080B400AF00BFBD4680BC704780B500AF282000F019FC032000F0DEF9052000F013FC032000F0D8F90F2000F00DFC032000F0D2F9012000F007FC02204E
:4011800000F0CCF9052000F001FC062000F0B4F80E2000F0B1F82C2000F0AEF8082000F0ABF8012000F0A8F80C2000F0A5F8032000F0A2F8052000F0E9FB00BF80BD00BF77
:4011C00080B500AF0C2000F097F8024B01221A7000BF80BDF881FF1F80B500AF064B1B78002B04D1FFF7B4FF034B01221A70FFF7E7FF00BF80BD00BFF981FF1F80B582B0D1
:4012000000AF03460A46FB711346BB71FB79032B26D801A252F823F029120000371200004512000053120000BB79803BDBB2184600F062F815E0BB79403BDBB2184600F0F2
:401240005BF80EE0BB796C3BDBB2184600F054F807E0BB792C3BDBB2184600F04DF800E000BF00BF0837BD4680BD00BF80B584B000AF78600123FB737B681B78BB730BE0DC
:40128000BB7B184600F01EF8FB7B7A6813441B78BB73FB7B0133FB73BB7B002BF0D100BF1037BD4680BD00BF80B582B000AF0346FB71FB79184600F005F800BF0837BD465A
:4012C00080BD00BF80B584B000AF0346FB7100F02DF8FB791B09FB73FB7B184600F0E2F8FB7903F00F03FB73FB7B184600F0DAF800BF1037BD4680BD80B584B000AF034648
:40130000FB7100F013F8FB791B09FB73FB7B184600F004F9FB7903F00F03FB73FB7B184600F0FCF800BF1037BD4680BD80B582B000AF4FF4CA737B60554A554B1B78DBB2CA
:4013400023F07F03DBB21370524B1B78DBB223F00F03FB704F4AFB7843F00F03DBB213704D4B1B78DBB223F00F03FB704A4AFB7813704A4B1B78DBB223F00F03FB70474A72
:40138000FB781370424A424B1B78DBB223F02003DBB213703E4A3E4B1B78DBB243F04003DBB21370002000F013FB394A384B1B78DBB243F01003DBB21370012000F008FB53
:4013C000374B1B78FB70324A314B1B78DBB223F01003DBB21370002000F0FAFAFB7803F00803FB702A4A2A4B1B78DBB243F01003DBB21370012000F0EBFA254A244B1B7879
:40140000DBB223F01003DBB21370FB78002B02D10A2000F0DDFA7B68013B7B60FB78002B02D07B68002BBDD1194A194B1B78DBB223F04003DBB21370154A154B1B78DBB255
:4014400023F07F03DBB21370124A124B1B78DBB223F00F03DBB213700F4B1B78DBB223F00F03FB700C4AFB7843F00F03DBB213700A4B1B78DBB223F00F03FB70074AFB78C8
:4014800043F00F03DBB2137000BF0837BD4680BD205100402251004023510040245100402151004080B582B000AF0346FB711A4A194B1B78DBB243F02003DBB21370164AA1
:4014C000154B1B78DBB223F04003DBB21370002000F07EFA104A104B1B78DBB223F00F03DBB213700C490C4B1B78DAB2FB791343DBB243F01003DBB20B70012000F068FA91
:40150000054A054B1B78DBB223F01003DBB2137000BF0837BD4680BD2051004080B582B000AF0346FB71154A144B1B78DBB223F06003DBB21370114A104B1B78DBB223F0AF
:401540000F03DBB213700D490C4B1B78DAB2FB791343DBB243F01003DBB20B70012000F037FA064A054B1B78DBB223F01003DBB2137000BF0837BD4680BD00BF20510040F2
:4015800080B582B000AF0023FB7106E0FB791846FFF7EEF8FB790133FB71FB79012BF5D9034BFF221A7000BF0837BD4680BD00BF4D81FF1F80B582B000AF0346FB71FFF7CD
:4015C000DFFFFB791846FFF7B3F8034AFB79137000BF0837BD4680BD4D81FF1F80B584B000AF03460A46FB8013467B7100F0CEF80346FB7300F0A4F80346BB81FA88BB8977
:401600009A4200F08880464B1B78DBB203F00103FB72FB7B002B20D1BB89002B02D0FB88002B1AD1BB89002B0BD13E4AFB8813803D4A3D4B1B78DBB223F04003DBB21370D7
:4016400069E0394A384B1B78DBB243F04003DBB21370344AFB8813805DE0FB7A002B33D0324B00221A70324B01221A70314B00221A70314A304B1B78DBB203F07F03DBB26E
:401680001370294B1B78DBB203F00803002B02D0FB88002B18D1294ABB891380234B07221A7000BF214B1B78DBB203F00103002BF8D11B4A1A4B1B78DBB223F00103DBB252
:4016C00013701A4B00221A70154B1B78DBB203F00103002B13D0194AFB881380134A7B79002B01D0032300E00123137000BF0F4B1B78DBB203F00103002BF8D10BE0094AFC
:40170000FB8813800649064B1B78DAB2FB7A1343DBB20B70FFE700BF1037BD4680BD00BFA24300408040004082400040014000401040004014400040084000400240004040
:4017400080B400AF034B1B889BB21846BD4680BC704700BF8040004080B483B000AF0346FB710949084B1B78DBB25AB297F9073023F007035BB213435BB2DBB20B7000BF7E
:401780000C37BD4680BC70478240004080B400AF044B1B78DBB203F00703DBB21846BD4680BC70478240004080B584B000AF03460A46FB8013467B7100F0CEF80346FB73DE
:4017C00000F0A4F80346BB81FA88BB899A4200F08880464B1B78DBB203F00103FB72FB7B002B20D1BB89002B02D0FB88002B1AD1BB89002B0BD13E4AFB8813803D4A3D4BC5
:401800001B78DBB223F04003DBB2137069E0394A384B1B78DBB243F04003DBB21370344AFB8813805DE0FB7A002B33D0324B00221A70324B01221A70314B00221A70314AC3
:40184000304B1B78DBB203F07F03DBB21370294B1B78DBB203F00803002B02D0FB88002B18D1294ABB891380234B07221A7000BF214B1B78DBB203F00103002BF8D11B4A1C
:401880001A4B1B78DBB223F00103DBB213701A4B00221A70154B1B78DBB203F00103002B13D0194AFB881380134A7B79002B01D0032300E00123137000BF0F4B1B78DBB23A
:4018C00003F00103002BF8D10BE0094AFB8813800649064B1B78DAB2FB7A1343DBB20B70FFE700BF1037BD4680BD00BFA143004000410040024100400140004014400040EF
:4019000010400040084000400240004080B400AF034B1B889BB21846BD4680BC704700BF0041004080B483B000AF0346FB710949084B1B78DBB25AB297F9073023F00703D8
:401940005BB213435BB2DBB20B7000BF0C37BD4680BC70470241004080B400AF044B1B78DBB203F00703DBB21846BD4680BC70470241004080B483B000AF0346FB7101BE37
:4019800000BF0C37BD4680BC704700BF80B582B000AF786008E00C4B1B68184600F04CFA7B68A3F500437B607B68B3F5004FF2D8064B1B687A6802FB03F3184600F03CFAC2
:4019C00000BF0837BD4680BD5C81FF1F5481FF1F80B582B000AF0346FB80FB88054A127802FB03F3184600F027FA00BF0837BD4680BD00BF5881FF1F80B584B000AF0346CE
:401A00003960FB710F4B1B68FB60FB791F2B02D90020FFF7AFFFFB7903F01F0310339B00FA6813441B68BB60FB7903F01F0310339B00FA6813443A681A60BB68184610374A
:401A4000BD4680BD08ED00E080B582B000AF03460A46FB711346BB71BB79072B02D90020FFF788FFFB791F2B02D90020FFF782FFFB7903F01F0303F1604303F56443BA79B1
:401A80005201D2B21A7000BF0837BD4680BD00BF80B500AF064B00221A70064B00221A70042000F057F8022000F034F800BF80BD2C5800402D58004080B400AF094A094B3A
:401AC0001B78DBB243F00803DBB21370064A064B1B78DBB243F00803DBB2137000BFBD4680BC7047A8430040B843004080B500AF074B1B78002B04D1FFF7CAFF044B012254
:401B00001A70FFF7D9FFFF2000F044F800BF80BDFA81FF1F80B483B000AF0346FB710C4A0B4B1B78DBB223F00203DBB213700849074B1B78DAB2FB7903F00203DBB213439D
:401B4000DBB20B7000BF0C37BD4680BC704700BF2C58004080B582B000AF0346FB710C4A0B4B1B78DBB223F00C03DBB213700849074B1B78DAB2FB7903F00C03DBB21343FE
:401B8000DBB20B7000F016F800BF0837BD4680BD2C58004080B483B000AF0346FB71044AFB79137000BF0C37BD4680BC704700BF835B004080B483B000AF0B4B1B78DBB2AC
:401BC00003F00C039B08DBB20633FB71074AFB7903F1924303F59C731B78DBB2137000BF0C37BD4680BC70472C5800400B46004080B500AF032000F039F800BF80BD00BFA6
:401C000080B400AF0D4A0D4B1B78DBB243F06003DBB213700A4A0A4B1B78DBB243F00803DBB21370074A074B1B78DBB243F00803DBB2137000BFBD4680BC70477758004060
:401C4000A4430040B443004080B500AF064B1B78002B04D1044B01221A70FFF7C9FFFFF7CFFF00BF80BD00BFFB81FF1F80B483B000AF0346FB710C4A0B4B1B78DBB223F0C1
:401C80000303DBB213700849074B1B78DAB2FB7903F00303DBB21343DBB20B7000BF0C37BD4680BC704700BF5E58004080B500AF064B1B78002B04D100F00AF8034B01221C
:401CC0001A7000F065F800BF80BD00BFFC81FF1F80B582B000AF294A284B1B78DBB243F00203DBB21370264B1B78DBB223F07003FB71234AFB7943F01003DBB21370214A2E
:401D0000204B1B78DBB223F03003DBB213701D4A1C4B1B78DBB243F03003DBB21370194A184B1B78DBB223F00F03DBB21370154A144B1B78DBB243F00F03DBB2137041F2DD
:401D4000883000F049F87D2000F056F8002000F063F80D4A0C4B1B78DBB243F00103DBB213700A4A094B1B78DBB243F00103DBB2137000BF0837BD4680BD00BF004F004084
:401D8000024F00400B4F0040A3430040014F004080B400AF0D4A0D4B1B78DBB243F00103DBB213700A4A0A4B1B78DBB243F00103DBB21370074A074B1B78DBB243F001033F
:401DC000DBB2137000BFBD4680BC7047A3430040B3430040004F004080B483B000AF0346FB80044AFB88138000BF0C37BD4680BC704700BF044F004080B483B000AF03464C
:401E0000FB80044AFB88138000BF0C37BD4680BC704700BF064F004080B483B000AF0346FB71044AFB79137000BF0C37BD4680BC704700BF034F00400230800803D000BFD2
:401E400001380046FCD17047EFF3108072B6704780F31088704700BF014B1868704700BFC081FF1F0E4B70B51E460E4C0025E41AA410A54204D056F8253098470135F8E787
:401E800000F0EAFC084B094C1E46E41AA4100025A54204D056F8253098470135F8E770BD6428000064280000642800006C28000010B5431E0A44914204D011F8014B03F847
:401EC000014FF8E710BD03460244934202D003F8011BFAE7704700000EB400B54FF402719CB0ADF814106FF00041049107914FF6FF711DAB02900690084853F8042BADF8DE
:401F00001610006802A9019300F064F8029B00221A701CB05DF804EB03B07047C081FF1F2DE9F0478E6882469E420C46914698463ED88A8912F4906F3AD025680969022318
:401F40006F1A656905EB450595FBF3F57B1C43449D4238BF1D4653050FD5294600F040FB064698B13A462169FFF7A2FFA38923F4906343F08003A38113E02A4600F08EFB09
:401F8000064670B92169504600F0DEFA0C23CAF80030A3894FF0FF3043F04003A381BDE8F08726613E44266046466561ED1BA560464528BF464649463246206800F0A8FA46
:401FC000A36800209B1BA36023681E442660BDE8F08700002DE9F04F9DB003938B8980461C060D4616460DD50B695BB9402100F0F7FA2860286118B90C23C8F80030CDE031
:4020000040236B610023099320238DF82930DFF89CB130238DF82A3037463C4614F8013B1BB9B7EB060910D003E0252BF9D02746F3E74B46324629464046FFF771FF0130B7
:4020400000F0A780099B4B4409933B78002B00F0A08000234FF0FF3204930793059206938DF853301A930126052221784E4800F041FA671C049B38B14B4A3C46801A06FA7F
:4020800000F018430490EFE7D90644BF20228DF853201A0744BF2B228DF8532022782A2A03D0079A00210A200BE0039A111D12680391002A10DA524243F00200079204906B
:4020C0000BE027463B780134303B092B03D800FB02320121F5E701B107923B782E2B1ED17B782A2B0AD1039B02371A1D1B680392002BB8BF4FF0FF33059310E0002319464D
:402100000593781C0A2407463A780130303A092A03D804FB01210123F5E703B1059103223978224800F0E6F940B14023CBEB000003FA00F0049B013718430490397806228D
:402140001B487E1C8DF8281000F0D4F988B1194B33B9039B073323F007030833039314E003AB00932A46144B04A94046AFF3008007E003AB00932A460F4B04A9404600F02B
:4021800093F8B0F1FF3F824603D0099B5344099342E7AB895B0601D4099801E04FF0FF301DB0BDE8F08F00BF22280000282800002C28000000000000211F00002DE9F04795
:4021C00091461F460A698B6806469342B8BF1346C9F8003091F843200C46DDF8208012B10133C9F800302368990642BFD9F800300233C9F80030256815F0060510D104F1FB
:40220000190A07E00123524639463046C04701301AD00135E368D9F800209B1A9D42F1DB94F843302268003318BF012392060FD5E118302081F843005A1C94F845102244FA
:40224000023382F8431003E04FF0FF30BDE8F08704F1430239463046C0470130F4D02268D9F80050E36802F00602042A08BF5D1B2269A3680CBF25EAE57500259342C4BF20
:402280009B1AED184FF000091A344D4509D00123224639463046C0470130D5D009F10109F3E70020BDE8F0872DE9F04317460A7E85B06E2A984606460C460C9B01F1430E8A
:4022C00000F0AE8011D8632A22D009D8002A00F0BB80582A40F0CA8081F84520834955E0642A1ED0692A1CD0C0E0732A00F0B08009D86F2A2ED0702A40F0B8800A6842F0D1
:4023000020020A603EE0752A24D0782A3AD0ADE01A6801F14205111D1960136884F84230A8E021681A6811F0800F02D0111D196008E011F0400F02F10401196002D0B2F99A
:40234000003000E01368002B3CDA2D225B4284F8432037E021681A6811F0800F02D0111D196007E011F0400F02F10401196001D0138800E01368227E5C496F2A14BF0A224F
:4023800008221BE078225A4984F845202268186812F0800F00F104051D6003D1550601D5038800E00368D00744BF42F0200222601BB9226822F0200222601022002084F85B
:4023C000430001E049490A226568002DA56008DB206820F0040020602BB9002D7DD175460CE0002B79D07546B3FBF2F002FB1033CB5C05F8013D03460028F5D1082A0BD151
:402400002368DA0708D5236962689A42DEBF302305F8013C05F1FF35C5EB0E0323612EE008681A6810F0800F496903D0101D1860136808E010F0400F02F104001860136833
:4024400001D0198000E0196000232361754616E01A68111D1960156800216268284600F049F808B1401B6060636804E004F1420584F8422001232361002384F84330CDF8F5
:4024800000803B4603AA21463046FFF797FE013002D14FF0FF3026E023692A4639463046C0470130F5D023689B0710D5002504F1190907E001234A4639463046C04701308A
:4024C000E7D00135E368039A9B1A9D42F2DBE068039B9842B8BF184605E00B7804F1420584F842308AE705B0BDE8F083332800004428000010B5C9B202449042034605D004
:402500001C7801308C42F8D1184610BD002010BD884210B501EB020301D8421E0BE09842FBD28118D21AD34204D013F8014D01F8014DF8E710BD994204D011F8014B02F824
:40254000014FF8E710BD000038B50546002944D051F8043C0C1F002BB8BFE41800F0D4F81E4A1368114613B96360146030E0A3420DD92268A018834201BF18685B68121890
:40258000226063600C6023E0A24203D813465A68002AF9D118681918A1420BD12168014458188242196013D110685268014419605A600DE002D90C232B6009E021686018B4
:4025C000824201BF106852680918216062605C602846BDE8384000F098B838BD0482FF1F70B5CD1C25F0030508350C2D38BF0C25002D064601DBA94202D90C23336046E0D5
:4026000000F082F8234B1C681A462146A1B10B685B1B0ED40B2B03D90B60CC18CD501EE08C420BBF63684B681360636018BF0C4615E00C464968E9E7174C23681BB9304669
:4026400000F052F820602946304600F04DF8431C18D0C41C24F00304A0420DD12560304600F053F804F10B00231D20F00700C31A0ED05A42E25070BD211A304600F034F874
:402680000130EBD10C233360304600F03EF8002070BD00BF0482FF1F0082FF1FF8B5074615460E4621B91146BDE8F840FFF798BF1AB9FFF749FF2846F8BD00F027F8854271
:4026C0000ED929463846FFF78BFF044650B131462A46FFF7EDFB31463846FFF735FF01E03046F8BD2046F8BD38B5064C0023054608462360FEF7E2F8431C02D1236803B172
:402700002B6038BD0C82FF1F7047704751F8040C0028BEBF091851F8043CC01804387047000000004144432020202053746570203D200000444143203D000000253364004A
:4027400025346400035B004024430040400000002800000030000000380000004000000048000000480000004800000048000000E881FF1FE881FF1FE881FF1FE881FF1F0B
:40278000E881FF1FE881FF1FE881FF1FE881FF1FE881FF1FE881FF1FE881FF1FE881FF1FE881FF1FE881FF1FE881FF1FE881FF1FE881FF1F0000004808000048140000484A
:4027C00094000048140100489401004814020048940200481403004894030048140400489404004814050048940500481406004894060048140700489407004814080048D9
:40280000940800481409004894090048140A0048940A0048140B0048940B0048140C00484300232D302B2000686C4C00656667454647003031323334353637383941424363
:40284000444546003031323334353637383961626364656600000000F8B500BFF8BC08BC9E46704715020000A9090000F8B500BFF8BC08BC9E467047F101000090280000B6
:40288000C880FF1F0001000048000000000000000000000000005300A700FA004D01A101F40147029B02EE0241039503E8033B048F04E20435058905DC052F068306D606F8
:4028C00029077D07D00723087708CA081D097109C409170A6B0ABE0A110B650BB80B0B0C5F0CB20C050D590DAC0DFF0D530EA60EF90E4D0FA00FF30F47109A10ED104111C1
:402900009411E7113B128E12E1123513881300001082FF1F01FF0000006CDC0280BB0000300000000000C05D000000000000000000000000000000000000000000000000B5
:40294000000000000000000020280000000000000000000000000000000000000000000000000000000000000000000000000000000000000000000000000000000000000F
:4029800000000000000000006081FF1F0000000000000000000000000000000000000000000000000000000000000000000000000000000000000000000000000000000018
:4029C00000000000000000000000000000000000000000000000000000000000000000000000000000000000000000000000000000000000000000000000000000000000D7
:402A00000000000000000000000000000000000000000000000000000000000000000000000000000000000000000000000000000000000000000000000000000000000096
:402A40000000000000000000000000000000000000000000000000000000000000000000000000000000000000000000000000000000000000000000000000000000000056
:402A80000000000000000000000000000000000000000000000000000000000000000000000000000000000000000000000000000000000000000000000000000000000016
:020000040003F7
:0200000480007A
:400000008000000000000000008000000000000000004B00000000000000000000000000000000000000000000000000000000000000000000000000000000000000000075
:4000400000000000000000000000000080000000000040000000000000000000000000000000000000000000000000000400000000000001000000000000000000000000BB
:400080000000000000000000000000000000000000000000000000000000000000000000000000000000000000000000000000000000000000000000000000000000000040
:4000C00000000000000000000008000000000000000000000000000000000000000000000000000000000000000000000000000000000000000000000000000000000000F8
:4001000008000000000000000000000000000000000000000000000000000000000000000000000000000000000000000000000000000000000000000008000000000000AF
:40014000000000000000000000000000000000000000000000000000000000000000000000000000000000000000000000000000000000000000000000000000000000007F
:400180000000000000000000000000000000000000000000000000000000000000000000000000000000000000000000000000000000000000000000000800000000000037
:4001C00000000000000000000000000000000000000000000000000000000000000000000000000000000000000000000000000000000000000000000000000000000000FF
:4002000000000000000000000000000000000000000000000000000000000000000000000000000000000000000000000000000000000000000000000000000000000000BE
:400240000000000000000000000000000000000000000000000000000008000000000000000000000000000000000000000000000000000000000000000000000000000076
:40028000000000000000000000000000000000000000000000000000000000000000000000000000000000000000000000000000000000000000000000000000000000003E
:4002C00000000000000000000000000000000000000000000000000000000000000000000000000001000000000000000000000000000000000000000000000000000000FD
:40030000000000000000000000000000000000000000000000000000000000100000000000000000000000000000002000000000000000000000000000000000000000008D
:40034000000000000000000000000000000000000000000000000000000000000000000000000000000000000000000000000000000000000000000000000000000000007D
:40038000000000000000000000000000000000000000000000000000000000000000000000000000000000000000000000000000000000000000000000000000000000003D
:4003C00000000000000000000000000000000000000000000000000000000000000000000000000000000000000000000000000000000000000000000000000000000000FD
:4004000000000000000000000000000000000000000000100000000000000000000000000000000000000000000000000000000000000000000000000000000000000000AC
:40044000000000000000000000000000000000000000000000000000000000000000000000000000000000000000000000000000000001000000000000000000000000007B
:40048000000000000000000000000000000000000000000000000000000000000000000000000000000000000000000000000000000000000000000000000000000000003C
:4004C00000000000000000000000000000000000000000000000000000000000000000000000000000000000000000000000000000000000000000000000000000000000FC
:4005000010000000000000000000000000000000000000000000000000000000000000000000000000000000000000000000000000000000000000000000000000000000AB
:40054000000000000000000000000000000000000000000000000000000000000000000000000000000000000000000000000000000000000000000000000000000000007B
:4005800010000000000000000000000000000000000000000000000000000000000000000000000000000000000000000000000000000000000000000000000000800000AB
:4005C00000000000000000000000000000000000000000000000000000000000000000000000000000000000000000000000000000000000000000000000000000000000FB
:4006000000000000000000000000000000000000000000000000000000000000000000000000000000000000000000000000000000000000000000000000000000000000BA
:40064000000000000000000000000000000000000000000000000000000000000000000000000000000000000000000000000000000000000000000000000000000000007A
:4006800000000100000000000000000000000000000000000000000000000000000000000000000000000000000000000000000000800000000000000000000000000000B9
:4006C00000000000000000000000000000000000000000000000000000000000000000000000000000000000000000000000000000000000000000000000000000000000FA
:400700000000000000000000000000000000000000000000000000000000000000000000000000000000000000000000000000000000000000000000008000000000000039
:400740000000000000000000000000000000000000000000000000000000000000000000000000000000000000000000000000000000000000000000000000000000000079
:4007800000000000000000000000000000000000000000000000000000800000000000000000000000000000000000000000000000000000000000000000000000000000B9
:4007C00000000000000000000000000000000000000000000000000000000000000000000000000000000000000000000000000000000000000000000200000000000000F7
:4008000000000000000000000000000000000000000000000000000000000000000000000000000000000000000000000000000000000000000000000000000000000000B8
:400840000000000000000000001000000000000000000000000000000000000000000000000000000000000000000000000000000000000000000000000000000000000068
:400880000000000000000000000000000000000000000000000000000000000000000000000000000000000000000000000000000000000000000000001000000000000028
:4008C00000000000000000000000000000000000000000000000000000000000000000000000000000000000000000000000000000000000000000000000000000000000F8
:4009000000000000000000000000000000000000000000000000000000000000000000000000000000000000000000000000000000000000000000000000000000000000B7
:400940000000000000000000000000000000000000000000000000000000000020000000000000000000000000000000000000000000000000000000000000000000000057
:400980000000000000000000000000000000000000000000000000000000000000000000000000000000000000000000000200000000000000000000000000000000000035
:4009C00000000000000000000000000000000000000000000000000000000000000000000000000000000000000000000000000000000000000000000000000000000000F7
:400A000000000000000000000000000000000000000000000000000000000000000000000000000000000000000000000000000000020000000000000000000000040000B0
:400A40000000000000000000000000000000000000000000000000000000100000000000000000000000000000000000000000000000000000000000000000000000000066
:400A800000008000000000000000000000000000000000000000000000000000000000000000000000000000000000000000000000000000000000000000000000000000B6
:400AC00000000000000000000000000000000000000000000000000000000000000000000000000000000000000000000004000000000000000000000000000000000000F2
:400B000000000000000000000000000000000000000000000000000000000000000000000000000000000000000000000000000000020000000000000000000000000000B3
:400B40000000000000000000000000000000000000000000000000000000000000000000000000000000000000004000000000000000000000000000000000000000000035
:400B80000000000000000000000000000000000000000000000000000000000000000000000000000000000000000000000000000000000000000000000000000000000035
:400BC00000000000000000000000000000000000000000000000000000000000000000000000000000000000000000000000000000020000000000000000000000000000F3
:400C000000000000000000000000000000000000000000000000000000000000000000000000000000000000000000000000000000000000000000000000000000000000B4
:400C400000000000000000000000000000000000000000000000000000000000000000000000000000000000000080000000000000000000000000000000000000000000F4
:400C8000000000000000000000000000000000000000000000808000800000000003030000000000007F7F000000000000000000000060000F001801000000000000000028
:400CC00000000000000000000000000000000000000000000000000000000000000000000000000000000000000000000000000000000000000000000000000000000000F4
:400D000000000000000000000000000000000000000000000000000000000000000000000000000000000000000000000000000000000000000000000000000000000000B3
:400D40000000000000000000000000000000000000000000000000000000000000000000000000000000000000000000000000000000000000000000000000000000000073
:400D80000000000000000000000000000000000000000000000000000000000000000000000000000000000000000000000000000000000000000000000000000000000033
:0200000490006A
:0400000000004005B7
:0200000490105A
:04000000BC90ACAF55
:0200000490303A
:02000000E61701
:0200000490402A
:4000000000000000000000000000000000000000000000000000000000000000000000000000000000000000000000000000000000000000000000000000000000000000C0
:400040000000000000000000000000000000000000000000000000000000000000000000000000000000000000000000000000000000000000000000000000000000000080
:400080000000000000000000000000000000000000000000000000000000000000000000000000000000000000000000000000000000000000000000000000000000000040
:4000C0000000000000000000000000000000000000000000000000000000000000000000000000000000000000000000000000000000000000000000000000000000000000
:0200000490501A
:0C00000000012E12306900012E21168034
:00000001FF